:100000000C9438010C9469010C9469010C946901F9
:100010000C9469010C9469010C9469010C946901B8
:100020000C9469010C9469010C9469010C946901A8
:100030000C9469010C9469010C9469010C94690198
:100040000C9469010C943D070C9469010C946901AE
:100050000C9469010C9469010C9469010C940906D3
:100060000C9469010C947D060C9453060C94690160
:100070000C9469010C9469010C9469010C94690158
:100080000C940F070C9469010C9469010C9469019C
:100090000C9469010C9469010C9469010C94690138
:1000A0000C9469010C9469010C94E1060C946901AB
:1000B0000C9469010C9469010C9469010C94B306C9
:1000C0000C9469010C9469010C9469010C94690108
:1000D0000C9469010C9469010C9469010C946901F8
:1000E0000C9469010C9448030C946B070C94C401A4
:1000F0000C9489010C94DF020C9493010C94EE0291
:100100000C949E010C9410030C94BC010C948F0170
:100110000C949B010C94A8010C94CE010C94B60194
:100120000C94C0010C9495030C94C9010C94CA0161
:100130000C9497010C9402030C94B2020C94B2013B
:100140000C940F0B0C94A4010C94AE010000210040
:10015000240027002A002D00300033000101000098
:10016000040107010A0100002200250028002B00DD
:100170002E003100340002010000050108010B01CE
:10018000000020002300260029002C002F00320050
:100190000001000003010601090105050505070529
:1001A00008080808020202020A0A080804040404F3
:1001B000010101010101010103030303030303031F
:1001C000040707070C0C0C0C0C0C0C0C02020202AE
:1001D00006060606060606060B0B0B0B0B0B0B0B97
:1001E0000102102020080810204010204080020149
:1001F000020108040201010204081020408080402E
:10020000201008040201800402018040201008042C
:1002100002010804020101020408102040800102CA
:1002200004081020408000000A0B02090C0D0E0883
:1002300007030401000000000000000000000000AF
:1002400000000000000000000000000000000000AE
:10025000000012111000000000000000000000006B
:100260000000000000000000000000006B070F0B02
:1002700011241FBECFEFD1E2DEBFCDBF00E00CBF27
:1002800012E0A0E0B2E0EAE3FEE100E00BBF02C052
:1002900007900D92AE33B107D9F723E0AEE3B2E099
:1002A00001C01D92A339B207E1F711E0C7E3D1E025
:1002B00000E006C021970109802FFE010E94480C32
:1002C000C633D10780E00807A9F70E94DA070C942B
:1002D0000B0F0C9400008150823108F05AC0E82FB7
:1002E000F0E08827E958FE4F8F4F0C94480C970197
:1002F0009B0189018F019301C9019E01A401A801FD
:10030000AE01B201B601BC01C001C901C401CA01FC
:10031000CE01809180008F77809380000895809136
:1003200080008F7DF9CF80918000877FF5CF84B5E5
:100330008F7784BD089584B58F7DFBCF8091B00009
:100340008F778093B00008958091B0008F7DF9CFB2
:10035000809190008F778093900008958091900015
:100360008F7DF9CF80919000877FF5CF8091A0009D
:100370008F778093A00008958091A0008F7DF9CFA2
:100380008091A000877FF5CF809120018F778093A7
:1003900020010895809120018F7DF9CF8091200167
:1003A000877FF5CFCF93DF93282F30E0F901EA5D07
:1003B000FD4F8491F901E052FE4FD491F901E656C8
:1003C000FE4FC491CC23A1F081110E946B01EC2F50
:1003D000F0E0EE0FFF1FE058FE4FA591B491EC91B5
:1003E000ED2381E090E009F480E0DF91CF91089562
:1003F00080E090E0FACF1F93CF93DF93282F30E077
:10040000F901EA5DFD4F8491F901E052FE4FD4916C
:10041000F901E656FE4FC491CC23A9F0162F8111A5
:100420000E946B01EC2FF0E0EE0FFF1FEA59FE4F28
:10043000A591B4918FB7F894EC91111108C0D095A3
:10044000DE23DC938FBFDF91CF911F910895DE2BC8
:10045000F8CFCF93DF9390E0FC01E052FE4F249160
:1004600086569E4FFC0184918823D1F090E0880F3E
:10047000991FFC01E45BFE4FA591B491FC01EA5980
:10048000FE4FC591D49161110EC09FB7F8948C9125
:10049000E22FE0958E238C932881E223E8839FBF8F
:1004A000DF91CF9108958FB7F894EC91E22BEC9304
:1004B0008FBFF6CF3FB7F8948091480290914902E0
:1004C000A0914A02B0914B0226B5A89B05C02F3FD0
:1004D00019F00196A11DB11D3FBFBA2FA92F982F6A
:1004E0008827BC01CD01620F711D811D911D42E065
:1004F000660F771F881F991F4A95D1F708958F922D
:100500009F92AF92BF92CF92DF92EF92FF926B01D8
:100510007C010E945A024B015C01C114D104E10428
:10052000F104B9F00E945A02681979098A099B09F5
:10053000683E73408105910580F321E0C21AD1081D
:10054000E108F10888EE880E83E0981EA11CB11C1A
:10055000E4CFFF90EF90DF90CF90BF90AF909F904F
:100560008F900895AF92BF92CF92DF92EF92FF9259
:100570000F931F93CF93DF936C017B018B01040FCB
:10058000151FEB015E01AE18BF08C017D10759F067
:100590006991D601ED91FC910190F081E02DC601A9
:1005A0001995892B79F7C501DF91CF911F910F9193
:1005B000FF90EF90DF90CF90BF90AF900895FC0137
:1005C000538D448D252F30E0842F90E0821B930BB8
:1005D000541710F0CF96089501970895FC01918D5E
:1005E000828D981761F0A28DAE0FBF2FB11D5D9661
:1005F0008C91928D9F5F9F73928F90E008958FEF03
:100600009FEF0895FC01918D828D981731F0828DB6
:10061000E80FF11D858D90E008958FEF9FEF08950D
:10062000FC01918D228D892F90E0805C9F4F821B71
:1006300091098F73992708958CE492E00E9410032A
:1006400021E0892B09F420E0822F0895FC01A48D7C
:10065000A80FB92FB11DA35ABF4F2C91848D90E0E4
:1006600001968F739927848FA689B7892C93A089C7
:10067000B1898C91837080648C93938D848D981351
:1006800006C00288F389E02D80818F7D80830895E4
:10069000EF92FF920F931F93CF93DF93EC0181E0D2
:1006A000888F9B8D8C8D98131AC0E889F989808179
:1006B00085FF15C09FB7F894EE89FF896083E889AC
:1006C000F98980818370806480839FBF81E090E09E
:1006D000DF91CF911F910F91FF90EF900895F62E2B
:1006E0000B8D10E00F5F1F4F0F731127E02E8C8DC5
:1006F0008E110CC00FB607FCFACFE889F98980810A
:1007000085FFF5CFCE010E942603F1CFEB8DEC0FD4
:10071000FD2FF11DE35AFF4FF0829FB7F8940B8F26
:10072000EA89FB8980818062CFCFCF93DF93EC0190
:10073000888D8823B9F0AA89BB89E889F9898C91C9
:1007400085FD03C0808186FD0DC00FB607FCF7CF85
:100750008C9185FFF2CF808185FFEDCFCE010E9485
:100760002603E9CFDF91CF91089580E090E0892BB7
:1007700029F00E941C0381110E94000080E090E09B
:10078000892B49F080E090E0892B29F00E9400003D
:1007900081110E94000080E090E0892B49F080E008
:1007A00090E0892B29F00E94000081110E94000036
:1007B00080E090E0892B49F080E090E0892B29F0DF
:1007C0000E94000081110C9400000895CF92DF92E6
:1007D000EF92FF92CF93DF93EC01603282E07807D3
:1007E000CCF5653B710514F064EB70E0898128E875
:1007F00030E0281B310987FD3395220F331F220F6C
:10080000331F6901330FEE08FF088A8128E532E0C3
:10081000281B310987FD3395220F331F220F331F09
:10082000032E000C440B550B2C193D094E095F0992
:10083000DB0177FF02C0B0E0A0E00E94030C24EBD4
:1008400030E040E050E00E94D90BC20ED31EE41EFF
:10085000F51EB601E881E03370F5298188E890E063
:10086000821B910927FD9395880F991F880F991F67
:10087000681779077CF02A8188E592E0821B91094C
:1008800027FD9395880F991F880F991F681779077F
:100890000CF4CB010297880F991F4FB7F8942E2FB5
:1008A00030E0F901EE0FFF1FE20FF31FE751FD4F9C
:1008B000928381834FBFDF91CF91FF90EF90DF90C4
:1008C000CF900895AF92BF92CF92DF92EF92FF92B6
:1008D0000F931F93CF93DF936B017A01EC01C25CFE
:1008E000DD4F28813CE0389F8001399F100D112495
:1008F000A0907903B12C27FF1FC0FB011182108249
:1009000088818F5F888388819801280F311D87FD3A
:100910003A95F6012A153B051CF488818C30C4F108
:1009200080819181049680349C4908F473C0F6015B
:1009300080819181049670C088819801280F311DB3
:1009400087FD3A952A153B05DCF68881A801480FFA
:10095000511D87FD5A95FA01EE0FFF1FE40FF51F99
:10096000E751FD4F808186FFCBCF8881F801E80FEA
:10097000F11D87FDFA95CF01EE0FFF1FE80FF91F5C
:10098000E751FD4F808160E08F730E94FB01B8CF7B
:10099000808191812881A801420F511D27FD5A9520
:1009A0009A01FA01EE0FFF1FE20FF31FE751FD4F0F
:1009B00021813281820F931FF70191838083888187
:1009C0009801280F311D87FD3A95F901EE0FFF1FA1
:1009D000E20FF31FE751FD4F808186FF22C088811F
:1009E000080F111D87FD1A95F801EE0FFF1FE00F8C
:1009F000F11FE751FD4F808161E08F73DF91CF914F
:100A00001F910F91FF90EF90DF90CF90BF90AF902C
:100A10000C94FB0180E49CE9F701918380838FEFC4
:100A20008883DF91CF911F910F91FF90EF90DF901E
:100A3000CF90BF90AF90089585E00E94D201892B9E
:100A4000D9F786E00E94D201892BB1F787E00E9496
:100A5000D201892B89F788E00E94D201892B61F7A6
:100A6000089520918D0330918E03DC011496ED9151
:100A7000FC9115972E173F07B0F0409189035091D4
:100A80008A034115510579F06D917C9161157105CD
:100A900051F02E1B3F0BCA01820F931F0E94FB0EC9
:100AA00021E0892B09F020E0822F0895CF93DF9376
:100AB000EC0188819981009711F00E94880D1982BC
:100AC00018821D821C821B821A82DF91CF910895A9
:100AD000FC0180819181009711F00C94880D08959C
:100AE0000F931F93CF93DF93EC0188819981009737
:100AF00059F02A813B812617370730F081E0DF91DA
:100B0000CF911F910F9108958B016F5F7F4F0E94CE
:100B1000110E009759F0998388831B830A832C81D7
:100B20003D81232B59F7FC011082E8CF80E0E7CF0D
:100B3000EF92FF920F931F93CF93DF93611571058F
:100B400041F480E0DF91CF911F910F91FF90EF90E2
:100B5000089541155105B1F07B01EC010C811D8117
:100B6000040F151FB8010E947005882351F32881D6
:100B700039818C819D81B701820F931F0E94040FE0
:100B80001D830C8381E0DECFFC0101900020E9F79A
:100B90003197AF01481B590BBC018DE793E00C94D2
:100BA0009805EF92FF920F931F93CF93DF93EC0181
:100BB0007B018A01BA010E94700581110BC0CE0130
:100BC0000E945605CE01DF91CF911F910F91FF90AA
:100BD000EF9008951D830C83B701888199810E944D
:100BE000040FF0CF50E040E060E372E00C94D105D8
:100BF000FC01118210821382128215821482FB0181
:100C000001900020E9F73197AF01461B570B0C9478
:100C1000D1051F920F920FB60F9211242F933F937D
:100C20008F939F93AF93BF9380914402909145021D
:100C3000A0914602B09147023091430223E0230F76
:100C40002D3758F50196A11DB11D209343028093C5
:100C5000440290934502A0934602B09347028091CC
:100C6000480290914902A0914A02B0914B0201962C
:100C7000A11DB11D8093480290934902A0934A029E
:100C8000B0934B02BF91AF919F918F913F912F9164
:100C90000F900FBE0F901F90189526E8230F029615
:100CA000A11DB11DD2CF1F920F920FB60F9211242A
:100CB0000BB60F922F933F934F935F936F937F9356
:100CC0008F939F93AF93BF93EF93FF938CE492E046
:100CD0000E942603FF91EF91BF91AF919F918F9159
:100CE0007F916F915F914F913F912F910F900BBE2C
:100CF0000F900FBE0F901F9018951F920F920FB676
:100D00000F9211240BB60F922F938F939F93EF9313
:100D1000FF93E0915C02F0915D028081E0916202BC
:100D2000F091630282FD1DC09081809165028F5F0A
:100D30008F7320916602821741F0E0916502F0E026
:100D4000E45BFD4F958F80936502FF91EF919F913A
:100D50008F912F910F900BBE0F900FBE0F901F9091
:100D600018958081F2CF1F920F920FB60F92112427
:100D70000BB60F922F933F934F935F936F937F9395
:100D80008F939F93AF93BF93EF93FF9348E251E00C
:100D900064E271E090E080E00E946204FF91EF91D4
:100DA000BF91AF919F918F917F916F915F914F9183
:100DB0003F912F910F900BBE0F900FBE0F901F9081
:100DC00018951F920F920FB60F9211240BB60F9227
:100DD0002F933F934F935F936F937F938F939F9343
:100DE000AF93BF93EF93FF9348EA50E064EA70E05B
:100DF00083E090E00E946204FF91EF91BF91AF9178
:100E00009F918F917F916F915F914F913F912F9122
:100E10000F900BBE0F900FBE0F901F9018951F9252
:100E20000F920FB60F9211240BB60F922F933F9390
:100E30004F935F936F937F938F939F93AF93BF93E2
:100E4000EF93FF9348E950E064E970E082E090E0BE
:100E50000E946204FF91EF91BF91AF919F918F919A
:100E60007F916F915F914F913F912F910F900BBEAA
:100E70000F900FBE0F901F9018951F920F920FB6F4
:100E80000F9211240BB60F922F933F934F935F93C2
:100E90006F937F938F939F93AF93BF93EF93FF9342
:100EA00048E850E064E870E081E090E00E9462046D
:100EB000FF91EF91BF91AF919F918F917F916F9132
:100EC0005F914F913F912F910F900BBE0F900FBEEE
:100ED0000F901F90189510924F0210924E0288EEBC
:100EE00093E0A0E0B0E08093500290935102A09371
:100EF0005202B09353028AE092E090934D028093A5
:100F00004C0285EC90E0909359028093580284EC57
:100F100090E090935B0280935A0280EC90E0909373
:100F20005D0280935C0281EC90E090935F0280937D
:100F30005E0282EC90E0909361028093600286EC06
:100F400090E0909363028093620210926502109287
:100F50006602109267021092680260E372E089E80C
:100F600093E00E94F80560E372E083E893E00E945A
:100F7000F80560E372E08DE793E00E94F805809148
:100F80007903803398F491E0980F909379038093DC
:100F90007A0390E0FC01EE0FFF1FE80FF91FE75105
:100FA000FD4F88EB9BE09283818308958FEF8093C0
:100FB0007A030895CF93DF93CDB7DEB72F970FB69F
:100FC000F894DEBF0FBECDBF789484B5826084BD37
:100FD00084B5816084BD85B5826085BD85B581603D
:100FE00085BD80916E00816080936E0010928100BB
:100FF0008091810082608093810080918100816076
:101000008093810080918000816080938000809136
:10101000B10084608093B1008091B00081608093C2
:10102000B000809191008260809391008091910046
:101030008160809391008091900081608093900006
:101040008091A10082608093A1008091A1008160C5
:101050008093A1008091A00081608093A000809186
:101060002101826080932101809121018160809320
:1010700021018091200181608093200180917A007C
:10108000846080937A0080917A00826080937A00F5
:1010900080917A00816080937A0080917A008068E4
:1010A00080937A001092C100E0915C02F0915D02A1
:1010B00082E08083E0915802F09159021082E09121
:1010C0005A02F0915B028FEC808310926402E091EF
:1010D0006002F091610286E08083E0915E02F0910F
:1010E0005F02808180618083E0915E02F0915F0207
:1010F000808188608083E0915E02F0915F02808150
:1011000080688083E0915E02F0915F0280818F7D34
:10111000808361E085E30E94290261E082E00E9411
:10112000290261E083E00E94290261E084E00E94DC
:10113000290260E085E00E94290260E086E00E94CA
:10114000290260E087E00E94290260E088E00E94B6
:10115000290280917A03803308F052C061E089E06F
:101160000E94290280917A03282F30E0F901EE0FC6
:10117000FF1FE20FF31FE751FD4F9081907C9960B4
:10118000908310927B0310927C032CE0622F0E94CC
:101190003C0C829FB001112430E020E0AB01420FF3
:1011A000531FFA01EE0FFF1FE40FF51FE751FD4F2C
:1011B000908196FD17C02F5F3F4F2C30310571F79E
:1011C000813009F099C11092800082E08093810003
:1011D0001092850010928400B19A80916F00826015
:1011E00080936F00E0917A038E2F90E0FC01EE0F68
:1011F000FF1FE80FF91FE751FD4F80818064808356
:101200006AE570E08AE793E00E94E60310924202EA
:101210008DE793E00E94F20561E082E00E94FB010D
:1012200085E00E94D201892B39F081E0809342024F
:1012300088E192E00E94C40586E00E94D201892BD9
:1012400039F081E0809342028CE392E00E94C40571
:1012500087E00E94D201892B39F081E0809342021D
:101260008AE192E00E94C40588E00E94D201892BA5
:1012700039F081E0809342028CE192E00E94C40543
:101280000E941C0560E082E00E94FB0161E083E0B7
:101290000E94FB0185E00E94D201892B39F081E098
:1012A000809342028EE192E00E94C40586E00E9493
:1012B000D201892B39F081E08093420280E292E0F2
:1012C0000E94C40587E00E94D201892B39F081E099
:1012D0008093420287E392E00E94C40588E00E9466
:1012E000D201892B39F081E08093420282E292E0C0
:1012F0000E94C4050E941C0560E083E00E94FB017F
:1013000061E084E00E94FB0185E00E94D201892B0C
:1013100039F081E08093420284E292E00E94C405A9
:1013200086E00E94D201892B39F081E0809342024D
:1013300086E292E00E94C40587E00E94D201892BD8
:1013400039F081E08093420288E292E00E94C40575
:1013500088E00E94D201892B39F081E0809342021B
:101360008AE292E00E94C4050E941C0560E084E0CD
:101370000E94FB0180914202882309F473C061E05E
:1013800085E30E94FB0164E670E080E090E00E944B
:101390007F0260E085E30E94FB0160917D03709114
:1013A0007E036115710509F4D3C04091810350910A
:1013B000820383E893E00E94D1054091810350911C
:1013C000820360917D0370917E0389E893E00E941F
:1013D00098051A8219821C821B821E821D826091CE
:1013E0008303709184036115710541F04091870377
:1013F00050918803CE0101960E94D10541E050E052
:101400006CE272E0CE0101960E949805811104C041
:10141000CE0101960E94560540918D0350918E0396
:101420006091890370918A03CE0101960E9498050C
:10143000811104C0CE0101960E9456054D815E8146
:1014400069817A818CE492E00E94B20242E050E02D
:101450006EE272E08CE492E00E94B202CE0101964C
:101460000E94680561E372E0CE0101960E94F805D2
:10147000CE0101960E943105182FCE0101960E94DF
:101480006805112309F469C089E893E00E94F20518
:101490000FE510E08CECC82E87E1D82E8CE6E82E04
:1014A00084E4F82E61E085E30E94FB0120E030E057
:1014B00040E05FE3C701B6010E941B0B0E94BD0C18
:1014C0004B015C010E947F0260E085E30E94FB010A
:1014D000C501B4010E947F0220E030E040E251E407
:1014E000C701B6010E94500C6B017C01015011092B
:1014F000C9F60E94B5038ACE823061F41092900042
:1015000080939100109295001092940088BB809374
:10151000710068CE833069F41092A00082E080935D
:10152000A1001092A5001092A40089BB80937200C4
:1015300059CE811157CE1092200182E08093210173
:1015400010922501109224018ABB809373004ACE29
:1015500083E893E00E94560530CF69E372E0CE0144
:1015600001960E94F805CE0101960E943105182FC0
:10157000CE0101960E946805112309F4BACF89E8CB
:1015800093E00E94F20580917A0390917B03A091F1
:101590007C038F839887A9870AE510E0B801CE0104
:1015A00007960E94E6036BE070E080E090E00E9406
:1015B0007F020150110991F780917A0390917B038A
:1015C000A0917C038A879B87AC87B801CE010A96DD
:1015D0000E94E6036DE070E080E090E00E947F02F0
:1015E0000F5F1F4F043B110581F780917A039091A3
:1015F0007B03A0917C038D879E87AF87B801CE01C6
:101600000D960E94E60365E070E080E090E00E94A5
:101610007F02015011090A35110581F76ACF8DE764
:1016200093E00E94680583E893E00E94680589E8DA
:1016300093E00C9468050E942E0B0C949F0B0E9463
:10164000910B38F00E94980B20F0952311F00C9428
:10165000880B0C948E0B11240C94D30B0E94B00BAE
:1016600070F3959FC1F3950F50E0551F629FF001F5
:10167000729FBB27F00DB11D639FAA27F00DB11D0E
:10168000AA1F649F6627B00DA11D661F829F222797
:10169000B00DA11D621F739FB00DA11D621F839F1E
:1016A000A00D611D221F749F3327A00D611D231FF4
:1016B000849F600D211D822F762F6A2F11249F5742
:1016C00050409AF0F1F088234AF0EE0FFF1FBB1F45
:1016D000661F771F881F91505040A9F79E3F510504
:1016E00080F00C94880B0C94D30B5F3FE4F3983E8E
:1016F000D4F3869577956795B795F795E7959F5FAE
:10170000C1F7FE2B880F911D9695879597F908953F
:1017100097F99F6780E870E060E008959FEF80ECA4
:10172000089500240A941616170618060906089547
:1017300000240A9412161306140605060895092EAD
:101740000394000C11F4882352F0BB0F40F4BF2B1C
:1017500011F460FF04C06F5F7F4F8F4F9F4F08955C
:1017600057FD9058440F551F59F05F3F71F0479552
:10177000880F97FB991F61F09F3F79F08795089537
:10178000121613061406551FF2CF4695F1DF08C056
:10179000161617061806991FF1CF86957105610573
:1017A00008940895E894BB2766277727CB0197F91B
:1017B0000895052E97FB1EF400940E94F00B57FD30
:1017C00007D00E940B0C07FC03D04EF40C94F00BD6
:1017D00050954095309521953F4F4F4F5F4F08955D
:1017E00090958095709561957F4F8F4F9F4F08958D
:1017F0000E942D0CA59F900DB49F900DA49F800D6D
:10180000911D11240895B7FF0C94F80B0E94F80B5A
:10181000821B930B0895A1E21A2EAA1BBB1BFD018C
:101820000DC0AA1FBB1FEE1FFF1FA217B307E407BF
:10183000F50720F0A21BB30BE40BF50B661F771F17
:10184000881F991F1A9469F76095709580959095F7
:101850009B01AC01BD01CF010895A29FB001B39FD0
:10186000C001A39F700D811D1124911DB29F700DA9
:10187000811D1124911D0895991B79E004C0991FC1
:10188000961708F0961B881F7A95C9F780950895DA
:10189000EE0FFF1F881F8BBF0790F691E02D199464
:1018A0005058BB27AA270E94680C0C949F0B0E94DB
:1018B000910B38F00E94980B20F039F49F3F19F4F7
:1018C00026F40C948E0B0EF4E095E7FB0C94880B39
:1018D000E92F0E94B00B58F3BA1762077307840709
:1018E000950720F079F4A6F50C94D20B0EF4E09550
:1018F0000B2EBA2FA02D0B01B90190010C01CA01CA
:10190000A0011124FF27591B99F0593F50F4503E74
:1019100068F11A16F040A22F232F342F4427585F66
:10192000F3CF469537952795A795F0405395C9F77E
:101930007EF41F16BA0B620B730B840BBAF0915036
:10194000A1F0FF0FBB1F661F771F881FC2F70EC0D5
:10195000BA0F621F731F841F48F4879577956795A8
:10196000B795F7959E3F08F0B0CF9395880F08F094
:101970009927EE0F9795879508950E94B80B88F0E8
:101980009F5798F0B92F9927B751B0F0E1F0660F43
:10199000771F881F991F1AF0BA95C9F714C0B13084
:1019A00091F00E94D20BB1E008950C94D20B672FF6
:1019B000782F8827B85F39F0B93FCCF386957795B3
:1019C0006795B395D9F73EF490958095709561959C
:1019D0007F4F8F4F9F4F08950F931F93CF93DF93A8
:1019E0008230910510F482E090E0E0919103F09153
:1019F000920330E020E0B0E0A0E0309799F42115A8
:101A0000310509F44AC0281B390B24303105D8F5BB
:101A10008A819B816115710589F1FB019383828322
:101A2000FE0111C04081518102811381481759077D
:101A3000E0F04817590799F4109761F012960C934B
:101A4000129713961C933296CF01DF91CF911F917D
:101A50000F9108950093910310939203F4CF2115F1
:101A6000310551F04217530738F0A901DB019A0103
:101A7000BD01DF01F801C1CFEF01F9CF90939203CF
:101A800080939103CDCFFE01E20FF31F81939193D9
:101A90002250310939832883D7CF20918F03309189
:101AA0009003232B41F420910202309103023093E2
:101AB000900320938F0320910002309101022115A1
:101AC000310541F42DB73EB7409104025091050213
:101AD000241B350BE0918F03F0919003E217F3077D
:101AE000A0F42E1B3F0B2817390778F0AC014E5F8E
:101AF0005F4F2417350748F04E0F5F1F5093900338
:101B000040938F03819391939FCFF0E0E0E09CCFCF
:101B1000CF93DF930097E9F0FC0132971382128292
:101B2000A0919103B0919203ED0130E020E0109775
:101B3000A1F420813181820F931F20918F03309176
:101B400090032817390709F061C0F0939003E093E0
:101B50008F03DF91CF910895EA01CE17DF07E8F5F3
:101B60004A815B819E0141155105B1F7E901FB8373
:101B7000EA8349915991C40FD51FEC17FD0761F411
:101B8000808191810296840F951FE9019983888352
:101B9000828193819B838A83F0E0E0E012968D91AD
:101BA0009C9113970097B9F52D913C911197CD0118
:101BB0000296820F931F20918F0330919003281774
:101BC000390739F6309751F510929203109291032C
:101BD000B0939003A0938F03BCCFD383C283408183
:101BE0005181840F951FC817D90761F44E5F5F4F6D
:101BF00088819981480F591F518340838A819B8135
:101C0000938382832115310509F0B0CFF0939203BD
:101C1000E09391039ECFFD01DC01C0CF13821282BD
:101C2000D7CF4F925F926F927F928F929F92AF9297
:101C3000BF92CF92DF92EF92FF920F931F93CF93B9
:101C4000DF938C01009799F4CB01DF91CF911F9125
:101C50000F91FF90EF90DF90CF90BF90AF909F904B
:101C60008F907F906F905F904F900C94EC0CFC01E4
:101C7000E60FF71F9C0122503109E217F30708F421
:101C8000AEC0D901CD91DC911197C617D70720F1CD
:101C9000C530D10578F0CE0104978617970750F02C
:101CA000C61BD70B2297C193D1936D937C93CF0121
:101CB0000E94880DC801DF91CF911F910F91FF9075
:101CC000EF90DF90CF90BF90AF909F908F907F90DC
:101CD0006F905F904F9008955B01AC1ABD0A4C0164
:101CE0008C0E9D1EA0919103B0919203512C412C1A
:101CF000F12CE12C109731F580918F039091900396
:101D00008815990509F05CC04616570608F058C0BA
:101D10008091000290910102009741F48DB79EB727
:101D20004091040250910502841B950BE817F907B6
:101D300008F055C0F0939003E0938F03F90171838D
:101D40006083B8CF8D919C91119712966C901297E9
:101D500013967C901397A815B90559F56C0142E0CC
:101D6000C40ED11CCA14DB0420F1AC014A195B0972
:101D7000DA011296159780F0628273825183408354
:101D8000D9016D937C93E114F10471F0D70113969E
:101D9000FC93EE9312978ECF22968C0F9D1FF90124
:101DA00091838083F301EFCFF0939203E09391034B
:101DB00081CF4816590608F42C017D01D3019ACF32
:101DC000CB010E94EC0C7C01009749F0AE01B801F8
:101DD0000E94F20EC8010E94880D87016BCF10E0AF
:101DE00000E068CFFB01DC0102C001900D92415080
:101DF0005040D8F70895FB01DC018D9101908019C6
:101E00000110D9F3990B0895FB01DC0101900D92AB
:101E10000020E1F7089511E0C7E3D1E000E006C03B
:101E2000802FFE010E94480C2196011DC833D10766
:0A1E300080E00807A9F7F894FFCF3F
:101E3A00000093038000000000004803B202DF02A2
:101E4A0095031003EE020203310037002A00320024
:101E5A0035003000330036003900230020000D0A17
:0E1E6A00003733353536303800313130340032
:00000001FF
